:0400000080EF05F098
:1000080000C018F001C017F00CC016F00DC015F0B4
:10001800E9CF19F0EACF1AF0906AC40EE96E000E23
:10002800EA6E0001C251E926D8B0EA2AEECF91FF64
:10003800C3C090FFFEDAC3C001F00136019001C0D1
:10004800C3F00150080802E2010EC36FC22BC2516F
:100058000308D8A0C26BD66AF29418C000F017C083
:1000680001F016C00CF015C00DF019C0E9FF1AC058
:04007800EAFF11008A
:0A007C00030E0D6E0D2EFED71200CC
:10008600480E0C6E6C0E0D6E0D2EFED70C2EFCD788
:040096000000120054
:0C009A00A60E0D6E0D2EFED70000120009
:1000A6000001F0BF02D08C9E01D08C8EF0BD02D034
:1000B6008C9C01D08C8CF0BB02D08C9A01D08C8A9F
:1000C600F0B902D08C9801D08C88CAB302D08A8449
:1000D60001D08A948A8ACFDF8A9AF0B702D08C9EA2
:1000E60001D08C8EF0B502D08C9C01D08C8CF0B3F4
:1000F60002D08C9A01D08C8AF0B102D08C9801D0B3
:100106008C88CAB302D08A8401D08A948A8AB3DFE3
:0E0116008A9ACAA302D0B4DF01D0BCDF120067
:0E012400ACB202D00000FCD7F0C0ADFF12005C
:100132000001EF6BECC0E9FFEDC0EAFFEECFEEF09D
:10014200EE51000A0EE0EEC0F0F0EBDF0001EF2B03
:10015200EF51EC25E96E000EED21EA6EEECFEEF0E6
:04016200EFD71200C1
:10016600070E0C6E760E0D6E0D2EFED70C2EFCD7DE
:040176000000120073
:10017A000B6A0A6A096A086A0E6A03340836045066
:10018A00085E0550D8A0053C095E0650D8A0063C7A
:10019A000A5E0750D8A0073C0B5EE86AD8A0010E99
:1001AA000E5E0336070E0C6E0334083609360A361D
:1001BA000B360E36045003A012D0085E0550D8A0A4
:1001CA00053C095E0650D8A0063C0A5E0750D8A036
:1001DA00073C0B5EE86AD8A0010E0E5E11D0082615
:1001EA000550D8B0053C09260650D8B0063C0A2668
:1001FA000750D8B0073C0B26E86AD8B0010E0E2685
:10020A0003360C2ED1D70234083609360A360B3695
:10021A000E36045003A012D0085E0550D8A0053C43
:10022A00095E0650D8A0063C0A5E0750D8A0073CD3
:10023A000B5EE86AD8A0010E0E5E11D008260550A2
:10024A00D8B0053C09260650D8B0063C0A26075005
:10025A00D8B0073C0B26E86AD8B0010E0E26023643
:10026A00070E0C6E0234083609360A360B360E367D
:10027A00045002A012D0085E0550D8A0053C095EC1
:10028A000650D8A0063C0A5E0750D8A0073C0B5E71
:10029A00E86AD8A0010E0E5E11D008260550D8B023
:1002AA00053C09260650D8B0063C0A260750D8B0A5
:1002BA00073C0B26E86AD8B0010E0E2602360C2E31
:1002CA00D1D70134083609360A360B360E360450B1
:1002DA0002A012D0085E0550D8A0053C095E06505F
:1002EA00D8A0063C0A5E0750D8A0073C0B5EE86A15
:1002FA00D8A0010E0E5E11D008260550D8B0053CD4
:10030A0009260650D8B0063C0A260750D8B0073C42
:10031A000B26E86AD8B0010E0E260136070E0C6EBF
:10032A000134083609360A360B360E36045001A057
:10033A0012D0085E0550D8A0053C095E0650D8A028
:10034A00063C0A5E0750D8A0073C0B5EE86AD8A0B4
:10035A00010E0E5E11D008260550D8B0053C0926BC
:10036A000650D8B0063C0A260750D8B0073C0B26E0
:10037A00E86AD8B0010E0E2601360C2ED1D7003409
:10038A00083609360A360B360E36045001A012D04A
:10039A00085E0550D8A0053C095E0650D8A0063C68
:1003AA000A5E0750D8A0073C0B5EE86AD8A0010E87
:1003BA000E5E11D008260550D8B0053C0926065015
:1003CA00D8B0063C0A260750D8B0073C0B26E86A84
:1003DA00D8B0010E0E260036070E0C6E0034083611
:1003EA0009360A360B360E36045000A012D0085EC3
:1003FA000550D8A0053C095E0650D8A0063C0A5E06
:10040A000750D8A0073C0B5EE86AD8A0010E0E5E22
:10041A0011D008260550D8B0053C09260650D8B098
:10042A00063C0A260750D8B0073C0B26E86AD8B023
:10043A00010E0E2600360C2ED1D700B00ED0045075
:10044A0008260550D8B0053C09260650D8B0063C07
:0C045A000A260750D8B0073C0B26120001
:10046600240E0001D76F010ED86FF00ED96F000E63
:10047600DA6F480EDB6F070EDC6F000EDD6F000EC5
:10048600DE6F5A0ECF6F070ED06F000ED16F000EC3
:10049600D26FFF0ED36FFF0ED46F000ED56F000E16
:1004A600D66FAC8A900EAB6E948E949C9EAA03D0A7
:0804B600AECF00F0FBD71200ED
:0E04BE000001CA93ECC0F0F0EFDDCA8312001B
:0A04CC00490E0D6E0D2EFED7120032
:1004D600220E0C6E086A096A0A6A0B6A0C06D8B400
:1004E6001FD0D8900B320A32093208320332023258
:1004F60001320032D8A0F2D70C06D8B409D0045085
:1005060008260550092206500A2207500B22EAD770
:10051600045008260550092206500A2207500B22CD
:020526001200C1
:100528000001EC07EC07ECC001F0EC0701500008F3
:1005380003E200000000F7D7000000000000000000
:04054800000012009D
:10054C00086A096A100E0C6E01340836093604501C
:10055C00085E0550D8A0053C095ED8B007D0045001
:10056C0008260550D8B0053C0926D890003601362F
:06057C000C2EEAD712006C
:10058200400E006E9C0E016E000E026E036E120093
:10059200939A93949598959A959C959E8A9A8A9403
:1005A2008C9E8C9C8C9A8C986DDD6CDD6BDD8C8ABC
:1005B2008C888A8A62DD8A9A65DD8A8A5EDD8A9AF9
:1005C20061DD8A8A5ADD8A9A5DDD8C988A8A55DDD8
:1005D2008A9A58DD8A8A51DD8A9A8C9A8C8E8A8A06
:1005E2004CDD8A9A4FDD8C9E8C888A8A46DD8A9AF7
:1005F2008C988A8A42DD8A9A45DD8A8A3EDD8A9A09
:100602008C888A8A3ADD8A9A3DDD8C988A8A35DD21
:100612008A9A8C8E8C8C8C8A8C888A8A2EDD8A9A15
:0806220031DD0001CA83120062
:10062A000F0EC16EC290070EB46EF80E946E1200D1
:10063A000D0E0C6EFB0E0D6E0D2EFED70C2EFCD77A
:06064A0000000000120098
:1006500010D0800E0001E06F1AD0C00EE06F17D0EE
:10066000940EE06F14D0D40EE06F11D0800EE06FC6
:100670000ED00001E051010AECE0E051020AEDE089
:10068000E051030AEDE0E051040AEDE0EFD7E105A7
:10069000006EE051002600C0E0F000C0F0F003DD85
:1006A000CA93E46BE451E225E96E000EE321EA6EA1
:1006B000EE520BE0E451E225E96E000EE321EA6E12
:0E06C000EECFECF0FCDEE42BEDD7CA83120087
:1006CE00070EB46E5FDF010EF06FE6DC0C0EF06FFE
:0406DE00E3DC120047
:1006E2000900F5CFE6FF0006FBE10106F9E1120081
:1006F200070EB412F00E996E906A9A6A916AC40E4D
:10070200D56ED66A0001C86BC96BC26B010EC36F8E
:06071200F28EF28A1200D3
:100718000F0EC112070EB412FF0E0001C46FFF0EB8
:10072800C56FFF0EC66FFF0EC76FF00E996E906A09
:100738009A6A916AC40ED56ED66AF28EF28A12004F
:10074800AECF01F0ABA202D0AB98AB8801C000F0ED
:0207580012008D
:0A075A00000E9EBA010E006E1200A0
:100764000F0EC16EC2907E86040E7F6E110EAF6EA8
:10077400AC8477DE060E0B6E130E0C6EAD0E0D6E92
:100784000D2EFED70C2EFCD70B2EFAD7000000003E
:10079400450EEC6F000EED6FCADC0A0EF06FC0DC84
:0A07A4000D0E0001F06FBCDC120026
:1007AE00C26A070EC012C08EE0C000F00036009084
:1007BE00003600900050C212C28081DEC282C2A2F8
:1007CE0001D0FDD7C4CF01F0006AC3500012000E55
:0607DE000112C29012009E
:1007E400E0C0CBF0E1C0CCF0E2C001F0010E006E3D
:1007F400015004E000360090FF0FFBD700C0CDF09D
:10080400001E00C0CEF0120E0001E025E96E000EBD
:10081400E121EA6E0050EF16120EE95E0050EF1669
:020824001200C0
:0E0826000F0EC16EC290F29EF29A906A1200FE
:100834000F0EC112070EB412926A936A946A956AF3
:0C084400966A976A986A996A9A6A12008C
:1008500098DEE80E046E030E056E000E066E076E3F
:100860003ADE00C0E8F001C0E9F002C0EAF003C0DF
:10087000EBF0E0C004F0E1C005F0000E066E076E7C
:100880007CDC00C0E8F001C0E9F002C0EAF003C07F
:10089000EBF000C005F001C006F002C007F003C095
:1008A00008F00832073206320532089E0832073255
:1008B00006320532089E05C000F006C001F007C0F0
:1008C00002F008C003F00332023201320032039E0C
:1008D00000C0E4F001C0E5F054DEE2C004F0E3C083
:1008E00005F0000E066E076EF6DDE4C009F0E5C007
:1008F0000AF0000E0B6E0C6E030E086E09C004F0B9
:100900000AC005F00BC006F00CC007F0085007E065
:1009100004360490053606360736FF0FF8D72DDC6F
:1009200000C0E8F001C0E9F002C0EAF003C0EBF05B
:100930000A0E046E000E056EE4C000F0E5C001F082
:1009400005DE00C0E4F001C0E5F0000E015C02E14C
:10095000030E005C01E242D0CBC0E9FFCCC0EAFF4D
:100960000001EB51000808E1EA51000805E1E951F6
:10097000000802E1E85100082FE2CD51EF12E553E3
:100980000DE0E66BE76B000EE75D02E1E551E65D29
:1009900005E2EC6BC9DDE64BE72BF5D7E4C0ECF0E4
:1009A000C3DDCE51EF16E5530DE0E66BE76B000EAD
:1009B000E75D02E1E551E65D05E2EC6BB5DDE64B96
:1009C000E72BF5D7E4C0ECF0AFDD010EE85F000ED9
:0E09D000E95BEA5BEB5BC4D7CE51EF16120079
:1009DE001ED03F0E006E3AD0060E006E37D05B0E64
:1009EE00006E34D04F0E006E31D0660E006E2ED0DB
:1009FE006D0E006E2BD07D0E006E28D0070E006E91
:100A0E0025D07F0E006E22D06F0E006E1FD000011B
:100A1E00E051000ADEE0E051010ADEE0E051020A98
:100A2E00DEE0E051030ADEE0E051040ADEE0E051D0
:100A3E00050ADEE0E051060ADEE0E051070ADEE0DC
:0E0A4E00E051080ADEE0E051090ADEE0120085
:060A5C00936A956A120086
:100A62000001E66BE2C001F0010E006E015004E0ED
:100A720000360090FF0FFBD700C0E5F0E0C0E9FFB1
:100A8200E1C0EAFF0050EE14016E0152010ED8A43B
:100A9200000E006EE451001A1AE0E351000806E26B
:100AA200B3EC00F0B3EC00F0E307F7D7E0C0E9FFE6
:100AB200E1C0EAFFE551EE14016E0152010ED8A425
:100AC200000E006EE451001A02E0FF0EE66FE6C06F
:040AD20000F012001E
:100AD6000F0EC16EC290070EB46EFF0E926EFF0E21
:100AE600936EFF0E946EFF0E956EFF0E966EFF0EC2
:0A0AF600976E98800001CA9112006B
:100B0000CEEC08F0E4DD010EF06F53EC00F0010EC6
:100B1000E06F020EE16F640EE26F000EE36F98DD8E
:100B2000330E0B6EBB0E0C6EDF0E0D6E0D2EFED750
:100B30000C2EFCD70B2EFAD700000000010EF06F30
:100B400053EC00F0010EE06F020EE16F570EE26F02
:100B5000000EE36F7DDD020EE06F020EE16F600EAE
:100B6000E26F000EE36F74DD4D0E0B6E190E0C6E0E
:100B70004F0E0D6E0D2EFED70C2EFCD70B2EFAD776
:100B800000000000C9DD010EF06F53EC00F0010E13
:100B9000E06F020EE16F240EE26F000EE36F58DD8E
:100BA000020EE06F020EE16F2D0EE26F000EE36F9A
:100BB0004FDD330E0B6EBB0E0C6EDF0E0D6E0D2E69
:100BC000FED70C2EFCD70B2EFAD700000000BF6B0F
:100BD000030EBF5D28E2FF0EC46FFF0EC56FFF0E50
:100BE000C66FFF0EC76F1A0E0B6E5E0E0C6E6E0E8A
:100BF0000D6E0D2EFED70C2EFCD70B2EFAD7000053
:100C0000C46BC56BC66BC76B1A0E0B6E5E0E0C6E9B
:100C10006E0E0D6E0D2EFED70C2EFCD70B2EFAD7B6
:100C20000000BF2BD5D7330E0B6EBB0E0C6EDF0E44
:100C30000D6E0D2EFED70C2EFCD70B2EFAD7000012
:100C4000000057DD010EF06F53EC00F0010EE06F75
:100C5000020EE16F1B0EE26F000EE36FF9DC020E75
:100C6000E06F020EE16F3B0EE26F000EE36FF0DC0F
:100C7000416A426A436A446A3F6A406A3F50401090
:100C8000D8A4ABD000010C0EE06F91DD00C0C0F025
:100C900001C0C1F0000E026E0150025C02E1005082
:100CA00005080AE3000E421802E1000E411804E1B3
:100CB000010E416E000E426E030E0001C15D02E1A5
:100CC000FA0EC05D0AE3000E441802E1000E43185C
:100CD00004E1010E436E000E446E000E421802E164
:100CE000010E41180AE1000E441802E1010E4318FA
:100CF00004E1010E3F6E000E406EE80E046E030E1E
:100D0000056EC0C000F0C1C001F020DC00C0C8F01A
:100D100001C0C9F000C0E0F062DE00C0C4F0640EA3
:100D2000046E000E056EC0C000F0C1C001F00EDC04
:100D30000A0E046E000E056E09DC08C000F009C042
:100D400001F000C0C8F001C0C9F000C0E0F047DE0B
:100D500000C0C5F00A0E046E000E056EC0C000F0A3
:100D6000C1C001F0A6EC02F00A0E046E000E056E82
:100D7000A6EC02F008C000F009C001F000C0C8F005
:100D800001C0C9F000C0E0F02ADE00C0C6F00A0EC3
:100D9000046E000E056EC0C000F0C1C001F0A6ECEC
:100DA00002F008C000F009C001F000C0C8F001C0A6
:100DB000C9F000C0E0F013DE00C0C7F0020E0B6EF9
:100DC000450E0C6EA90E0D6E0D2EFED70C2EFCD707
:100DD0000B2EFAD70000000051D7330E0B6EBB0E5E
:100DE0000C6EDF0E0D6E0D2EFED70C2EFCD70B2ECB
:100DF000FAD70000000017DD010E0001F06F53EC80
:100E000000F0010EE06F020EE16F8E0EE26F000E39
:100E1000E36F1EDC020EE06F020EE16F970EE26FD1
:100E2000000EE36F15DC06DD330E0B6EBB0E0C6E91
:100E3000DF0E0D6E0D2EFED70C2EFCD70B2EFAD723
:100E400000000000BF6B030EBF5D49E2010EF06FB2
:100E500053EC00F0010EE06F020EE16F8E0EE26FB8
:100E6000000EE36F28EC03F0020EE06F020EE16F5C
:100E7000970EE26F000EE36F28EC03F0FF0E896E11
:100E8000FF0E8A6EFF0E8B6EFF0E8C6EFF0E8D6E48
:100E9000FF0E8E6EFF0E8F6E1A0E0B6E5E0E0C6EB8
:100EA0006E0E0D6E0D2EFED70C2EFCD70B2EFAD724
:100EB0000000896A8A6A8B6A8C6A8D6A8E6A8F6A78
:100EC0001A0E0B6E5E0E0C6E6E0E0D6E0D2EFED794
:100ED0000C2EFCD70B2EFAD70000BF2BB4D7330E45
:100EE0000B6EBB0E0C6EDF0E0D6E0D2EFED70C2E94
:100EF000FCD70B2EFAD700000000010EF06F53EC68
:100F000000F0010EE06F020EE16F7D0EE26F000E49
:100F1000E36F28EC03F0020EE06F020EE16F860E25
:100F2000E26F000EE36F28EC03F0D5DD010EF06FE9
:100F300053EC00F0010EE06F020EE16F7D0EE26FE8
:100F4000000EE36F28EC03F0020EE06F020EE16F7B
:100F5000860EE26F000EE36F28EC03F0860EE06F62
:100F60000F0EE16FE26B010EE36F010EE46F79DDAE
:100F70000052D8A4CA81CAA10DD0860EE06F0F0E10
:100F8000E16FE26B010EE36FE46B6BDD005202E098
:100F9000CA9101D0CBD762DD330E0B6EBB0E0C6E47
:100FA000DF0E0D6E0D2EFED70C2EFCD70B2EFAD7B2
:100FB00000000000010EF06F53EC00F0010EE06F36
:100FC000020EE16F9C0EE26F000EE36F28EC03F05F
:100FD000020EE06F020EE16FB90EE26F000EE36FDA
:100FE00028EC03F0B2EC03F0ADEC03F0005238E073
:100FF000A4EC03F000C0DFF000C0F0F092EC00F0D1
:10100000010E0001F06F53EC00F0010EE06F020ED4
:10101000E16F9C0EE26F000EE36F28EC03F0020E0E
:10102000E06F020EE16FDF0EE26F000EE36F28EC5F
:1010300003F0020EE06F030EE16FA50EE26F000EEB
:10104000E36F28EC03F0660E0B6E760E0C6EC10E8D
:101050000D6E0D2EFED70C2EFCD70B2EFAD701D01D
:10106000C3D7330E0B6EBB0E0C6EDF0E0D6E000180
:101070000D2EFDD70C2EFBD70B2EF9D7000000004C
:10108000010EF06F53EC00F0010EE06F020EE16F05
:10109000B00EE26F000EE36F28EC03F0020EE06F7B
:1010A000020EE16F700EE26F000EE36F28EC03F0AA
:1010B00015EC03F0820EE06F0F0EE16F010EE26F90
:1010C000F2EC03F0700EE06F030EE16FB80EE26F0A
:1010D0000B0EE36F28EC04F0330E0B6EBB0E0C6EA0
:1010E000DF0E0D6E0D2EFED70C2EFCD70B2EFAD771
:0810F0000000000007D5FFD746
:10119C0010EE1BF0A40E006E010E016EF80EF66E32
:0E11AC00100EF76E000EF86E71EC03F01200DC
:0910F80053544550202D20320014
:0911010053544550202D2031000B
:0E110A0037205365672E2044697370732E00E2
:04111800414443000B
:02111C000000D1
:02111E000000CF
:021120000000CD
:1011220053656E64206120636861726163746572E5
:0211320021009A
:0911340053544550202D203000D9
:04113D004C434400DB
:0C11410043454E473333362048573000FA
:0D114D005069657A6F2042757A7A657200EC
:09115A0053544550202D203400AF
:08116300425554544F4E530055
:09116B0053544550202D2033009F
:051174004C454453004E
:0911790053544550202D2035008F
:0B1182002072656365697665642100DA
:09118D0053544550202D2036007A
:06119600554152543100E6
:020000040030CA
:0D000100061F1EF38381FFFFC0FFE0FF40DC
:00000001FF
